:100000000C9462000C948A000C948A000C948A0070
:100010000C948A000C948A000C948A000C948A0038
:100020000C948A000C948A000C948A000C948A0028
:100030000C948A000C948A000C948A000C948A0018
:100040000C94D9020C948A000C94A7020C9481029F
:100050000C948A000C948A000C948A000C948A00F8
:100060000C948A000C948A000000000024002700F1
:100070002A0000000000250028002B0000000008D6
:10008000000201000003040700000000000000005F
:1000900000000000230026002900040404040404D6
:1000A0000404020202020202030303030303010227
:1000B00004081020408001020408102001020408F6
:1000C00010207D0411241FBECFEFD8E0DEBFCDBFCE
:1000D00011E0A0E0B1E0E0EDFBE002C005900D9280
:1000E000AE32B107D9F721E0AEE2B1E001C01D9216
:1000F000A43DB207E1F710E0C2E6D0E004C02197CA
:10010000FE010E94AA04C136D107C9F70E94680304
:100110000C94E6050C940000CF92DF92EF92FF92D0
:100120000F931F93CF93DF936C017A018B01C0E093
:10013000D0E0CE15DF0589F0D8016D918D01D60193
:10014000ED91FC910190F081E02DC6010995892B7C
:1001500011F47E0102C02196ECCFC701DF91CF914F
:100160001F910F91FF90EF90DF90CF900895FC01C9
:10017000918D828D981761F0828DDF01A80FB11DDE
:100180005D968C91928D9F5F9F73928F90E0089502
:100190008FEF9FEF0895FC01918D828D981731F0BC
:1001A000828DE80FF11D858D90E008958FEF9FEF10
:1001B0000895FC01918D228D892F90E0805C9F4FE6
:1001C000821B91098F739927089587E391E00E941C
:1001D000D90021E0892B09F420E0822F0895FC0149
:1001E000848DDF01A80FB11DA35ABF4F2C91848DC0
:1001F00090E001968F739927848FA689B7892C93F5
:10020000A089B1898C9180648C93938D848D98138F
:1002100006C00288F389E02D80818F7D8083089558
:10022000EF92FF920F931F93CF93DF93EC0181E046
:10023000888F9B8D8C8D981305C0E889F989808102
:1002400085FD24C0F62E0B8D10E00F5F1F4F0F733E
:100250001127E02E8C8DE8120CC00FB607FCFACFE8
:10026000E889F989808185FFF5CFCE010E94EF00F2
:10027000F1CF8B8DFE01E80FF11DE35AFF4FF082A5
:100280000B8FEA89FB898081806207C0EE89FF8934
:100290006083E889F98980818064808381E090E0CF
:1002A000DF91CF911F910F91FF90EF900895CF9321
:1002B000DF93EC01888D8823C9F0EA89FB8980816E
:1002C00085FD05C0A889B9898C9186FD0FC00FB640
:1002D00007FCF5CF808185FFF2CFA889B9898C9181
:1002E00085FFEDCFCE010E94EF00E7CFDF91CF91E8
:1002F000089580E090E0892B29F00E94E5008111AB
:100300000C940000089590E0FC01E458FF4F3491F4
:10031000FC01E255FF4F2491FC01E656FF4FE491AA
:10032000EE2309F43BC0332339F1333091F038F434
:100330003130A9F0323001F584B58F7D12C03730ED
:1003400091F03830A1F03430B9F4809180008F7D85
:1003500003C0809180008F77809380000DC084B5AA
:100360008F7784BD09C08091B0008F7703C08091E2
:10037000B0008F7D8093B000F0E0EE0FFF1FEE58CD
:10038000FF4FA591B4918FB7F894EC91611103C020
:1003900020952E2301C02E2B2C938FBF0895CF9331
:1003A000DF9390E0FC01E255FF4F2491FC01E656FB
:1003B000FF4F8491882361F190E0880F991FFC0121
:1003C000E859FF4FC591D491FC01EE58FF4FA5911C
:1003D000B491611109C09FB7F89488812095822358
:1003E0008883EC912E230BC0623061F49FB7F894A0
:1003F0003881822F809583238883EC912E2B2C9338
:100400009FBF06C08FB7F894E8812E2B28838FBF3B
:10041000DF91CF9108953FB7F89480913301909187
:100420003401A0913501B091360126B5A89B05C0D5
:100430002F3F19F00196A11DB11D3FBFBA2FA92F63
:10044000982F8827820F911DA11DB11DBC01CD01E0
:1004500042E0660F771F881F991F4A95D1F70895CC
:10046000CF93DF93009779F0FC0101900020E9F72A
:100470003197AF01481B590BBC0187E391E00E9403
:100480008C00EC0102C0C0E0D0E042E050E060E14E
:1004900071E087E391E00E948C008C0F9D1FDF913B
:1004A000CF9108950F931F9390E0FC01E255FF4F09
:1004B0006491FC01E656FF4FE491F0E0EE0FFF1F60
:1004C000E057FF4F8591949100E412E42FE030E073
:1004D000462F0E942303611571058105910549F09E
:1004E000DC01CB010196A11DB11DBC01CD019F70A6
:1004F00003C060E070E0CB011F910F9108950E944E
:10050000E1051F920F920FB60F9211242F933F9384
:100510004F935F936F937F938F939F93AF93BF930B
:10052000EF93FF9387E391E00E94EF00FF91EF913B
:10053000BF91AF919F918F917F916F915F914F91FB
:100540003F912F910F900FBE0F901F9018951F9203
:100550000F920FB60F9211242F938F939F93EF93C7
:10056000FF93E0914701F09148018081E0914D01B6
:10057000F0914E0182FD12C09081809150018F5FF9
:100580008F7320915101821751F0E0915001F0E0FA
:10059000E95CFE4F958F8093500101C08081FF91EF
:1005A000EF919F918F912F910F900FBE0F901F9001
:1005B00018951F920F920FB60F9211242F933F930D
:1005C0008F939F93AF93BF9380912F0190913001B0
:1005D000A0913101B091320130912E0123E0230F1F
:1005E0002D3720F40196A11DB11D05C026E8230F6B
:1005F0000296A11DB11D20932E0180932F0190938F
:100600003001A0933101B093320180913301909178
:100610003401A0913501B09136010196A11DB11DA3
:100620008093330190933401A0933501B093360148
:10063000BF91AF919F918F913F912F910F900FBEDE
:100640000F901F901895CF92DF92EF92FF920F9329
:100650001F93E82FF92F05C0015011092109310915
:1006600061F1908196239417B9F305C001501109E7
:100670002109310911F1908196239413F7CFC12CF0
:10068000D12CE12CF12C0AC08FEFC81AD80AE80A45
:10069000F80A0C151D052E053F0579F0808186238B
:1006A000841791F36C2D7D2D8E2D9F2D1F910F9111
:1006B000FF90EF90DF90CF90089560E070E080E0D1
:1006C00090E01F910F91FF90EF90DF90CF900895F1
:1006D000789484B5826084BD84B5816084BD85B51D
:1006E000826085BD85B5816085BD80916E00816029
:1006F00080936E00109281008091810082608093CF
:1007000081008091810081608093810080918000D0
:100710008160809380008091B10084608093B100FB
:100720008091B00081608093B00080917A008460F5
:1007300080937A0080917A00826080937A00809121
:100740007A00816080937A0080917A00806880933B
:100750007A001092C10061E082E00E94CF0161E066
:1007600083E00E94CF0160E084E00E94CF0160E05E
:1007700085E00E94CF0161E08DE00E94CF01E09111
:100780004701F091480182E08083E0914301F091BC
:1007900044011082E0914501F09146018FEC808385
:1007A00010924F01E0914B01F0914C0186E0808363
:1007B000E0914901F0914A01808180618083E0915C
:1007C0004901F0914A01808188608083E09149016C
:1007D000F0914A01808180688083E0914901F09125
:1007E0004A0180818F7D8083C3E2D0E061E082E0B6
:1007F0000E948301CE010197F1F760E082E00E9440
:10080000830184E00E9452024B015C0183E191E08C
:100810000E94300261E083E00E948301CE010197D3
:10082000F1F760E083E00E94830185E00E945202BC
:100830006B017C018FE191E00E94300260E08DE06D
:100840000E948301B401990C880B990B0E94E80463
:1008500026E933E44BE05DE30E944C0520E030E004
:1008600040E05FE30E944C050E94B0046A307105CD
:10087000BCF0B601DD0C880B990B0E94E80426E958
:1008800033E44BE05DE30E944C0520E030E040E0C3
:100890005FE30E944C050E94B0046A30710554F574
:1008A00061E08DE00E9483010E940B024B015C011C
:1008B00082E3C82ED12CE12CF12C0E940B02DC012A
:1008C000CB0188199909AA09BB09883E9340A10563
:1008D000B10558F021E0C21AD108E108F10888EE0C
:1008E000880E83E0981EA11CB11CC114D104E10440
:1008F000F10419F70E94790179CFE7E3F1E013825F
:10090000128288EE93E0A0E0B0E084839583A68312
:10091000B78384E091E09183808385EC90E09587B4
:10092000848784EC90E09787868780EC90E0918BB9
:10093000808B81EC90E0938B828B82EC90E0958BA6
:10094000848B86EC90E0978B868B118E128E138EA3
:10095000148E0895EE0FFF1F0590F491E02D099479
:100960000E94B7046894B1110C94460508950E9442
:100970002B0588F09F5798F0B92F9927B751B0F001
:10098000E1F0660F771F881F991F1AF0BA95C9F713
:1009900014C0B13091F00E944505B1E008950C9467
:1009A0004505672F782F8827B85F39F0B93FCCF31A
:1009B000869577956795B395D9F73EF49095809590
:1009C000709561957F4F8F4F9F4F0895E89409C0B0
:1009D00097FB3EF490958095709561957F4F8F4F72
:1009E0009F4F9923A9F0F92F96E9BB279395F69588
:1009F000879577956795B795F111F8CFFAF4BB0F06
:100A000011F460FF1BC06F5F7F4F8F4F9F4F16C069
:100A1000882311F096E911C0772321F09EE8872FF3
:100A2000762F05C0662371F096E8862F70E060E0AF
:100A30002AF09A95660F771F881FDAF7880F969528
:100A4000879597F9089557FD9058440F551F59F011
:100A50005F3F71F04795880F97FB991F61F09F3FAB
:100A600079F087950895121613061406551FF2CFD4
:100A70004695F1DF08C0161617061806991FF1CF24
:100A800086957105610508940895E894BB2766274B
:100A90007727CB0197F908950E945F050C94D00544
:100AA0000E94C20538F00E94C90520F0952311F07C
:100AB0000C94B9050C94BF0511240C9446050E94B2
:100AC000230570F3959FC1F3950F50E0551F629F6A
:100AD000F001729FBB27F00DB11D639FAA27F00D97
:100AE000B11DAA1F649F6627B00DA11D661F829FBE
:100AF0002227B00DA11D621F739FB00DA11D621FA3
:100B0000839FA00D611D221F749F3327A00D611DBF
:100B1000231F849F600D211D822F762F6A2F1124A1
:100B20009F5750409AF0F1F088234AF0EE0FFF1FD4
:100B3000BB1F661F771F881F91505040A9F79E3F2B
:100B4000510580F00C94B9050C9446055F3FE4F321
:100B5000983ED4F3869577956795B795F795E79581
:100B60009F5FC1F7FE2B880F911D9695879597F98A
:100B7000089597F99F6780E870E060E008959FEF1F
:100B800080EC089500240A94161617061806090624
:100B9000089500240A9412161306140605060895F3
:100BA000092E0394000C11F4882352F0BB0F40F47B
:100BB000BF2B11F460FF04C06F5F7F4F8F4F9F4FBB
:100BC000089581E090E0F8940C94E605F894FFCF46
:100BD0000000000010018C00D900B700CB005701C5
:100BE0000D0A0064697374616E636531203D0020F5
:0E0BF00064697374616E636532203D200000FD
:107E0000112484B714BE81FFF0D085E080938100F7
:107E100082E08093C00088E18093C10086E0809377
:107E2000C20080E18093C4008EE0C9D0259A86E02C
:107E300020E33CEF91E0309385002093840096BBD3
:107E4000B09BFECF1D9AA8958150A9F7CC24DD24C4
:107E500088248394B5E0AB2EA1E19A2EF3E0BF2EE7
:107E6000A2D0813461F49FD0082FAFD0023811F036
:107E7000013811F484E001C083E08DD089C08234E0
:107E800011F484E103C0853419F485E0A6D080C0E4
:107E9000853579F488D0E82EFF2485D0082F10E0AE
:107EA000102F00270E291F29000F111F8ED06801E7
:107EB0006FC0863521F484E090D080E0DECF843638
:107EC00009F040C070D06FD0082F6DD080E0C81688
:107ED00080E7D80618F4F601B7BEE895C0E0D1E017
:107EE00062D089930C17E1F7F0E0CF16F0E7DF06D8
:107EF00018F0F601B7BEE89568D007B600FCFDCFD4
:107F0000A601A0E0B1E02C9130E011968C91119780
:107F100090E0982F8827822B932B1296FA010C0160
:107F200087BEE89511244E5F5F4FF1E0A038BF0790
:107F300051F7F601A7BEE89507B600FCFDCF97BE46
:107F4000E89526C08437B1F42ED02DD0F82E2BD052
:107F50003CD0F601EF2C8F010F5F1F4F84911BD097
:107F6000EA94F801C1F70894C11CD11CFA94CF0C13
:107F7000D11C0EC0853739F428D08EE10CD085E9AC
:107F80000AD08FE07ACF813511F488E018D01DD067
:107F900080E101D065CF982F8091C00085FFFCCF94
:107FA0009093C60008958091C00087FFFCCF809118
:107FB000C00084FD01C0A8958091C6000895E0E648
:107FC000F0E098E1908380830895EDDF803219F02E
:107FD00088E0F5DFFFCF84E1DECF1F93182FE3DFCA
:107FE0001150E9F7F2DF1F91089580E0E8DFEE27F6
:047FF000FF270994CA
:027FFE00040479
:0400000300007E007B
:00000001FF
