:100000000C9462000C948A000C948A000C948A0070
:100010000C948A000C948A000C948A000C948A0038
:100020000C948A000C948A000C948A000C948A0028
:100030000C948A000C948A000C948A000C948A0018
:100040000C9443040C948A000C9411040C94EB035C
:100050000C948A000C948A000C948A000C948A00F8
:100060000C948A000C948A000000000024002700F1
:100070002A0000000000250028002B0000000000DE
:1000800023002600290004040404040404040202DA
:100090000202020203030303030301020408102007
:1000A0004080010204081020010204081020000012
:1000B0000008000201000003040700000000000027
:1000C00000008D0411241FBECFEFD8E0DEBFCDBFEE
:1000D00011E0A0E0B1E0E0E8FDE002C005900D9283
:1000E000AC32B107D9F721E0ACE2B1E001C01D921A
:1000F000A13FB207E1F710E0C2E6D0E004C02197CB
:10010000FE010E94AA06C136D107C9F70E94D80491
:100110000C94BE060C940000FC01918D828D981702
:1001200061F0828DDF01A80FB11D5D968C91928DDB
:100130009F5F9F73928F90E008958FEF9FEF0895D8
:10014000FC01918D828D981731F0828DE80FF11DA1
:10015000858D90E008958FEF9FEF0895FC01918DBC
:10016000228D892F90E0805C9F4F821B91098F73B5
:1001700099270895FC01848DDF01A80FB11DA35AB2
:10018000BF4F2C91848D90E001968F739927848FB7
:10019000A689B7892C93A089B1898C9180648C93AE
:1001A000938D848D981306C00288F389E02D808199
:1001B0008F7D80830895EF92FF920F931F93CF93CB
:1001C000DF93EC0181E0888F9B8D8C8D981305C0A7
:1001D000E889F989808185FD24C0F62E0B8D10E019
:1001E0000F5F1F4F0F731127E02E8C8DE8120CC08C
:1001F0000FB607FCFACFE889F989808185FFF5CF32
:10020000CE010E94BA00F1CF8B8DFE01E80FF11DE7
:10021000E35AFF4FF0820B8FEA89FB89808180626D
:1002200007C0EE89FF896083E889F989808180644D
:10023000808381E090E0DF91CF911F910F91FF903B
:10024000EF900895CF93DF93EC01888D8823C9F058
:10025000EA89FB89808185FD05C0A889B9898C91CF
:1002600086FD0FC00FB607FCF5CF808185FFF2CF6A
:10027000A889B9898C9185FFEDCFCE010E94BA0083
:10028000E7CFDF91CF9108958CE391E00E94AE001B
:1002900021E0892B09F420E0822F089580E090E08E
:1002A000892B29F00E94440181110C9400000895CB
:1002B000CF92DF92EF92FF920F931F93CF93DF9332
:1002C0006C017A018B01C0E0D0E0CE15DF0589F02A
:1002D000D8016D918D01D601ED91FC910190F081D5
:1002E000E02DC6010995892B11F47E0102C02196EB
:1002F000ECCFC701DF91CF911F910F91FF90EF904D
:10030000DF90CF900895833081F028F4813099F008
:100310008230A1F008958730A9F08830B9F0843098
:10032000D1F4809180008F7D03C0809180008F7711
:1003300080938000089584B58F7702C084B58F7D47
:1003400084BD08958091B0008F7703C08091B00084
:100350008F7D8093B0000895CF93DF93282F30E0F6
:10036000F901E255FF4F8491F901E656FF4FD49110
:10037000F901EA57FF4FC491CC2391F081110E94FB
:100380008301EC2FF0E0EE0FFF1FE458FF4FA59123
:10039000B491EC91ED2381E090E021F480E002C083
:1003A00080E090E0DF91CF9108951F93CF93DF938A
:1003B000282F30E0F901E255FF4F8491F901E6560C
:1003C000FF4FD491F901EA57FF4FC491CC23C9F0F4
:1003D000162F81110E948301EC2FF0E0EE0FFF1F1A
:1003E000EE58FF4FA591B4918FB7F894111105C045
:1003F0009C91ED2FE095E92302C0EC91ED2BEC935D
:100400008FBFDF91CF911F910895CF93DF9390E03D
:10041000FC01E656FF4F2491FC01EA57FF4F8491FF
:10042000882361F190E0880F991FFC01E859FF4F84
:10043000C591D491FC01EE58FF4FA591B491611183
:1004400009C09FB7F8948881209582238883EC9116
:100450002E230BC0623061F49FB7F8943881822F4D
:10046000809583238883EC912E2B2C939FBF06C00D
:100470008FB7F894E8812E2B28838FBFDF91CF911F
:1004800008953FB7F8948091310190913201A09185
:100490003301B091340126B5A89B05C02F3F19F058
:1004A0000196A11DB11D3FBFBA2FA92F982F8827F4
:1004B000820F911DA11DB11DBC01CD0142E0660F4F
:1004C000771F881F991F4A95D1F708958F929F92A1
:1004D000AF92BF92CF92DF92EF92FF926B017C01BD
:1004E0000E9441024B015C01C114D104E104F104FA
:1004F000F1F00E944102DC01CB0188199909AA0997
:10050000BB09883E9340A105B10570F321E0C21AF2
:10051000D108E108F10888EE880E83E0981EA11C3E
:10052000B11CC114D104E104F10419F7DDCFFF902F
:10053000EF90DF90CF90BF90AF909F908F900895F5
:10054000CF93DF93EC0160E08E810E94D50161E0E2
:100550008E810E94D50160E08E810E94D5018BE8DA
:1005600091E00197F1F7DF91CF910895CF92DF925B
:10057000EF92FF920F931F93CF93DF937C016C0157
:1005800087E0C80ED11CC0E0D0E0062F10E0B80113
:100590000C2E02C0759567950A94E2F76170F6011A
:1005A00081916F010E94D5012196C430D10579F760
:1005B000C701DF91CF911F910F91FF90EF90DF90D6
:1005C000CF900C94A002CF92DF92EF92FF920F9304
:1005D0001F93CF93DF93EC01F62E642F8C810E9442
:1005E000D5018D818F3F19F060E00E94D5018F8584
:1005F0000F2D10E084FF25C06E0187E0C80ED11CCE
:10060000E12CF12CB8010E2C02C0759567950A9467
:10061000E2F76170F60181916F010E94D501FFEF51
:10062000EF1AFF0A88E0E816F10461F7CE01DF91C6
:10063000CF911F910F91FF90EF90DF90CF900C948E
:10064000A002B80184E0759567958A95E1F7CE011F
:100650000E94B6026F2DCE01DF91CF911F910F91B5
:10066000FF90EF90DF90CF900C94B60241E00E9493
:10067000E30281E090E0089540E061E00E94E3023F
:100680008BE39FE10197F1F70895EF92FF920F93AB
:100690001F93CF93DF93EC01623018F08F85886051
:1006A0008F876B8B1C8A80E48D8B80E18E8B80E53D
:1006B0008F8B61E08C810E9405028D818F3F19F044
:1006C00061E00E94050261E08E810E9405027E01C8
:1006D00087E0E80EF11C00E010E08F8584FD03C088
:1006E00084E090E002C088E090E0081719074CF41D
:1006F00061E0F70181917F010E9405020F5F1F4FAA
:10070000ECCF8BE39DE00197F1F760E08C810E94D4
:10071000D50160E08E810E94D5018D818F3F19F057
:1007200060E00E94D5016F8564FD1DC063E0CE01CD
:100730000E94B6020BE416E4C8010197F1F763E0EA
:10074000CE010E94B602C8010197F1F763E0CE0125
:100750000E94B60283E592E00197F1F762E0CE01D4
:100760000E94B60219C0606240E0CE010E94E3021E
:100770008BE496E40197F1F76F85606240E0CE016B
:100780000E94E30283E592E00197F1F76F856062D2
:1007900040E0CE010E94E3026F85606240E0CE013E
:1007A0000E94E30284E0888B40E06CE0CE010E946E
:1007B000E302CE010E943C0382E0898B40E066E0C8
:1007C000CE01DF91CF911F910F91FF90EF900C948C
:1007D000E3020E94B0061F920F920FB60F921124EF
:1007E0002F933F934F935F936F937F938F939F9339
:1007F000AF93BF93EF93FF938CE391E00E94BA0015
:10080000FF91EF91BF91AF919F918F917F916F91E8
:100810005F914F913F912F910F900FBE0F901F90BE
:1008200018951F920F920FB60F9211242F938F934A
:100830009F93EF93FF93E0914C01F0914D018081E4
:10084000E0915201F091530182FD12C0908180919C
:1008500055018F5F8F7320915601821751F0E091FF
:100860005501F0E0E45CFE4F958F8093550101C087
:100870008081FF91EF919F918F912F910F900FBEEB
:100880000F901F9018951F920F920FB60F92112480
:100890002F933F938F939F93AF93BF9380912D019D
:1008A00090912E01A0912F01B091300130912C0137
:1008B00023E0230F2D3720F40196A11DB11D05C0A3
:1008C00026E8230F0296A11DB11D20932C018093D1
:1008D0002D0190932E01A0932F01B09330018091B0
:1008E000310190913201A0913301B0913401019610
:1008F000A11DB11D8093310190933201A09333016A
:10090000B0933401BF91AF919F918F913F912F91FF
:100910000F900FBE0F901F901895ECE3F1E013823B
:10092000128288EE93E0A0E0B0E084839583A683F2
:10093000B78389E091E09183808385EC90E095878F
:10094000848784EC90E09787868780EC90E0918B99
:10095000808B81EC90E0938B828B82EC90E0958B86
:10096000848B86EC90E0978B868B118E128E138E83
:10097000148EE9EDF1E01382128289E191E0918316
:10098000808382E084838FEF858383E0868384E0A5
:10099000878385E0808786E0818787E0828713866A
:1009A000148615861686178661E0CF010C944503E0
:1009B000789484B5826084BD84B5816084BD85B53A
:1009C000826085BD85B5816085BD80916E00816046
:1009D00080936E00109281008091810082608093EC
:1009E00081008091810081608093810080918000EE
:1009F0008160809380008091B10084608093B10019
:100A00008091B00081608093B00080917A00846012
:100A100080937A0080917A00826080937A0080913E
:100A20007A00816080937A0080917A008068809358
:100A30007A001092C10062E089ED91E00E944503C6
:100A400062E088E00E94050262E089E00E940502FF
:100A500062E08AE00E94050262E080E00E940502F6
:100A600061E08BE00E94050261E08CE00E940502DB
:100A700061E08EE00E94050261E08FE00E940502C5
:100A800061E08DE00E94050260E08BE00E94D501EC
:100A900061E08CE00E94D50161E08EE00E94D5010A
:100AA00061E08FE00E94D50188E00E94AC01892BB3
:100AB00041F464EF71E080E090E00E94660261E33F
:100AC000F3C089E00E94AC01892B41F464EF71E02E
:100AD00080E090E00E94660262E3E6C08AE00E9445
:100AE000AC01892B41F464EF71E080E090E00E945A
:100AF000660263E3D9C080E00E94AC01892B41F417
:100B000064EF71E080E090E00E94660261E4CCC096
:100B100061E08BE00E94D50160E08CE00E94D5018D
:100B200061E08EE00E94D50161E08FE00E94D50176
:100B300088E00E94AC01892B41F464EF71E080E011
:100B400090E00E94660264E3AFC089E00E94AC01BD
:100B5000892B41F464EF71E080E090E00E9466022E
:100B600065E3A2C08AE00E94AC01892B41F464EFE6
:100B700071E080E090E00E94660266E395C080E04C
:100B80000E94AC01892B41F464EF71E080E090E0B9
:100B90000E94660262E488C061E08BE00E94D50199
:100BA00061E08CE00E94D50160E08EE00E94D501FA
:100BB00061E08FE00E94D50188E00E94AC01892BA2
:100BC00041F464EF71E080E090E00E94660267E328
:100BD0006BC089E00E94AC01892B41F464EF71E0A5
:100BE00080E090E00E94660268E35EC08AE00E94B6
:100BF000AC01892B41F464EF71E080E090E00E9449
:100C0000660269E351C080E00E94AC01892B41F487
:100C100064EF71E080E090E00E94660263E444C00B
:100C200061E08BE00E94D50161E08CE00E94D5017B
:100C300061E08EE00E94D50160E08FE00E94D50166
:100C400088E00E94AC01892B41F464EF71E080E000
:100C500090E00E9466026AE227C089E00E94AC012F
:100C6000892B41F464EF71E080E090E00E9466021D
:100C700060E31AC08AE00E94AC01892B41F464EF62
:100C800071E080E090E00E94660263E20DC080E0C7
:100C90000E94AC01892B09F0F7CE64EF71E080E08F
:100CA00090E00E94660264E480913A0190913B01D9
:100CB000FC01EB5CFE4F6083019690933B018093B7
:100CC0003A01E0913C01F0913D010190F081E02D6D
:100CD0008CE391E0099580913A0190913B01049752
:100CE000B1F560E071E085E391E00E94B506892BE3
:100CF000A1F489ED91E00E943C0347E050E06DE1F2
:100D000071E089ED91E00E9458016AEF70E080E0A7
:100D100090E00E94660261E013C089ED91E00E94BC
:100D20003C0345E050E065E271E089ED91E00E940E
:100D300058016AEF70E080E090E00E94660260E097
:100D40008DE00E94D50110923B0110923A010E9461
:100D50004E019ACEEE0FFF1F0590F491E02D0994FD
:100D600081E090E0F8940C94BE06FB01DC018D91CB
:100D7000019080190110D9F3990B0895F894FFCFD1
:100D8000313233340000000000DB005801AE008C2B
:100D900000A00022010000000036035801636F72BA
:0C0DA000726563740077726F6E6700006C
:107E0000112484B714BE81FFF0D085E080938100F7
:107E100082E08093C00088E18093C10086E0809377
:107E2000C20080E18093C4008EE0C9D0259A86E02C
:107E300020E33CEF91E0309385002093840096BBD3
:107E4000B09BFECF1D9AA8958150A9F7CC24DD24C4
:107E500088248394B5E0AB2EA1E19A2EF3E0BF2EE7
:107E6000A2D0813461F49FD0082FAFD0023811F036
:107E7000013811F484E001C083E08DD089C08234E0
:107E800011F484E103C0853419F485E0A6D080C0E4
:107E9000853579F488D0E82EFF2485D0082F10E0AE
:107EA000102F00270E291F29000F111F8ED06801E7
:107EB0006FC0863521F484E090D080E0DECF843638
:107EC00009F040C070D06FD0082F6DD080E0C81688
:107ED00080E7D80618F4F601B7BEE895C0E0D1E017
:107EE00062D089930C17E1F7F0E0CF16F0E7DF06D8
:107EF00018F0F601B7BEE89568D007B600FCFDCFD4
:107F0000A601A0E0B1E02C9130E011968C91119780
:107F100090E0982F8827822B932B1296FA010C0160
:107F200087BEE89511244E5F5F4FF1E0A038BF0790
:107F300051F7F601A7BEE89507B600FCFDCF97BE46
:107F4000E89526C08437B1F42ED02DD0F82E2BD052
:107F50003CD0F601EF2C8F010F5F1F4F84911BD097
:107F6000EA94F801C1F70894C11CD11CFA94CF0C13
:107F7000D11C0EC0853739F428D08EE10CD085E9AC
:107F80000AD08FE07ACF813511F488E018D01DD067
:107F900080E101D065CF982F8091C00085FFFCCF94
:107FA0009093C60008958091C00087FFFCCF809118
:107FB000C00084FD01C0A8958091C6000895E0E648
:107FC000F0E098E1908380830895EDDF803219F02E
:107FD00088E0F5DFFFCF84E1DECF1F93182FE3DFCA
:107FE0001150E9F7F2DF1F91089580E0E8DFEE27F6
:047FF000FF270994CA
:027FFE00040479
:0400000300007E007B
:00000001FF
