:100000000C9435000C945D000C945D000C945D0024
:100010000C945D000C945D000C945D000C945D00EC
:100020000C945D000C945D000C945D000C945D00DC
:100030000C945D000C945D000C945D000C945D00CC
:100040000C94E3020C945D000C94D3010C94050213
:100050000C945D000C945D000C945D000C945D00AC
:100060000C945D000C945D00350211241FBECFEF8F
:10007000D8E0DEBFCDBF11E0A0E0B1E0E0E5F7E001
:1000800002C005900D92A633B107D9F721E0A6E38F
:10009000B1E001C01D92AC3DB207E1F710E0CAE645
:1000A000D0E004C02297FE010E948C03C836D1071D
:1000B000C9F70E94D4020C94A6030C9400000F937D
:1000C0001F93CF93DF9326E040E855E260E070E0B5
:1000D00086E391E00E94710100E011E0C0E0D0E011
:1000E000F80161918F01CE010E9498032196C630DC
:1000F000D105B1F7C0E0D0E0CE010E949003682F97
:1001000086E391E00E94C1022196C630D105A1F795
:10011000DF91CF911F910F9108950895FC01818D7A
:10012000228D90E0805C9F4F821B91098F739927ED
:100130000895FC01918D828D981731F0828DE80F22
:10014000F11D858D90E008958FEF9FEF0895FC01DC
:10015000918D828D981761F0828DDF01A80FB11DFE
:100160005D968C91928D9F5F9F73928F90E0089522
:100170008FEF9FEF08958BE292E0892B49F080E0AA
:1001800090E0892B29F00E942B0281110C94000031
:100190000895FC01848DDF01A80FB11DA35ABF4F44
:1001A0002C91848D90E001968F739927848FA68976
:1001B000B7892C93A089B1898C9180648C93938D9D
:1001C000848D981306C00288F389E02D80818F7D8D
:1001D00080830895CF93DF93EC01888D8823C9F045
:1001E000EA89FB89808185FD05C0A889B9898C9140
:1001F00086FD0FC00FB607FCF5CF808185FFF2CFDB
:10020000A889B9898C9185FFEDCFCE010E94C900E4
:10021000E7CFDF91CF910895CF92DF92FF920F93B6
:100220001F93CF93DF931F92CDB7DEB76C0181E0B0
:10023000D60158968C9358975B969C915B975C96E9
:100240008C915C97981307C05096ED91FC91519753
:10025000808185FD2EC0F601038D10E00F5F1F4FDA
:100260000F731127F02EF601848DF81211C00FB60E
:1002700007FCF9CFD6015096ED91FC915197808102
:1002800085FFF1CFC60169830E94C9006981EBCF68
:10029000838DE80FF11DE35AFF4F6083D6015B9613
:1002A0000C935B975296ED91FC91539780818062FD
:1002B0000CC0D6015696ED91FC91579760835096ED
:1002C000ED91FC91519780818064808381E090E082
:1002D0000F90DF91CF911F910F91FF90DF90CF9002
:1002E0000895BF92CF92DF92EF92FF92CF93DF9368
:1002F000EC016A017B01B22EE889F98982E08083F2
:10030000411581EE580761057105A1F060E079E0C3
:100310008DE390E0A70196010E9468032150310906
:10032000410951095695479537952795211580E143
:10033000380798F0E889F989108260E874E88EE15E
:1003400090E0A70196010E946803215031094109FC
:1003500051095695479537952795EC85FD8530834E
:10036000EE85FF852083188EEC89FD89B082EA89AD
:10037000FB89808180618083EA89FB898081886034
:100380008083EA89FB89808180688083EA89FB8990
:1003900080818F7D8083DF91CF91FF90EF90DF9000
:1003A000CF90BF9008951F920F920FB60F92112415
:1003B0002F938F939F93EF93FF93E0914601F091DA
:1003C00047018081E0914C01F0914D0182FD12C006
:1003D000908180914F018F5F8F7320915001821720
:1003E00051F0E0914F01F0E0EA5CFE4F958F809371
:1003F0004F0101C08081FF91EF919F918F912F91CB
:100400000F900FBE0F901F9018951F920F920FB66E
:100410000F9211242F933F934F935F936F937F938A
:100420008F939F93AF93BF93EF93FF9386E391E0F6
:100430000E94C900FF91EF91BF91AF919F918F9161
:100440007F916F915F914F913F912F910F900FBED0
:100450000F901F90189586E391E00E948E0021E096
:10046000892B09F420E0822F08951092390110920F
:10047000380188EE93E0A0E0B0E080933A019093D9
:100480003B01A0933C01B0933D0188E191E0909342
:1004900037018093360185EC90E09093430180937F
:1004A000420184EC90E0909345018093440180ECFC
:1004B00090E0909347018093460181EC90E0909307
:1004C00049018093480182EC90E090934B01809326
:1004D0004A0186EC90E090934D0180934C0110927C
:1004E0004F01109250011092510110925201089543
:1004F000CF92DF92EF92FF920F931F93CF93DF93F0
:100500007C016A01EB0100E010E00C151D0571F0A3
:100510006991D701ED91FC910190F081E02DC70127
:100520000995892B19F00F5F1F4FEFCFC801DF919D
:10053000CF911F910F91FF90EF90DF90CF90089592
:100540006115710581F0DB010D900020E9F7AD0127
:1005500041505109461B570BDC01ED91FC91028083
:10056000F381E02D099480E090E00895DC01ED91A5
:10057000FC910190F081E02D099464E271E00C940B
:10058000A0020F931F93CF93DF93EC010E94B6025A
:100590008C01CE010E94BD02800F911FDF91CF918F
:1005A0001F910F91089508950E942D030E94D30278
:1005B0000E945F00CBEBD0E00E948D002097E1F31A
:1005C0000E94BB00F9CF1F920F920FB60F92112419
:1005D0002F933F938F939F93AF93BF938091D401B9
:1005E0009091D501A091D601B091D7013091D3015E
:1005F00023E0230F2D3720F40196A11DB11D05C066
:1006000026E8230F0296A11DB11D2093D3018093EC
:10061000D4019093D501A093D601B093D7018091D6
:10062000D8019091D901A091DA01B091DB01019636
:10063000A11DB11D8093D8019093D901A093DA0137
:10064000B093DB01BF91AF919F918F913F912F911B
:100650000F900FBE0F901F901895789484B582600C
:1006600084BD84B5816084BD85B5826085BD85B556
:10067000816085BDEEE6F0E0808181608083E1E805
:10068000F0E010828081826080838081816080833D
:10069000E0E8F0E0808181608083E1EBF0E0808140
:1006A00084608083E0EBF0E0808181608083EAE712
:1006B000F0E080818460808380818260808380819B
:1006C000816080838081806880831092C10008955A
:1006D000A1E21A2EAA1BBB1BFD010DC0AA1FBB1F46
:1006E000EE1FFF1FA217B307E407F50720F0A21BB8
:1006F000B30BE40BF50B661F771F881F991F1A9425
:1007000069F760957095809590959B01AC01BD014E
:10071000CF010895EE0FFF1F0590F491E02D09948D
:10072000F999FECF92BD81BDF89A992780B50895B9
:10073000262FF999FECF1FBA92BD81BD20BD0FB6FD
:10074000F894FA9AF99A0FBE01960895F894FFCF9B
:100750006D616E6973680000000000000000000019
:1007600000000000000000000C0178028E00A700CD
:100770009900EA000D0A006E616E00696E66006FF6
:060780007666002E000069
:00000001FF
