:100000000C945C000C9479000C9479000C947900A9
:100010000C9479000C9479000C9479000C9479007C
:100020000C9479000C9479000C9479000C9479006C
:100030000C9479000C9479000C9479000C9479005C
:100040000C94E8000C9479000C9479000C947900DD
:100050000C9479000C9479000C9479000C9479003C
:100060000C9479000C947900000000080002010053
:100070000003040700000000000000000102040863
:100080001020408001020408102001020408102002
:10009000040404040404040402020202020203032E
:1000A0000303030300000000250028002B000000CC
:1000B0000000240027002A0011241FBECFEFD8E043
:1000C000DEBFCDBF11E0A0E0B1E0E8EBF5E002C09B
:1000D00005900D92A632B107D9F721E0A6E2B1E072
:1000E00001C01D92AF32B207E1F70E94A2020C9448
:1000F000DA020C94000061E0809122010E94F30179
:1001000061E0809120010E94F30161E0809124016F
:100110000C94F301CF92DF92EF92FF920F931F9313
:10012000CF93DF9300E011E0C0E0D0E02AE0E22EC0
:10013000F12C60E080912201CA30D1056CF40E945C
:100140002C02F801208140E060912001809124017F
:100150000E94620220E01AC00E942C02CE01B70168
:100160000E94B2026B01DC01AA0FBB1FA050BF4F5F
:100170002C9140E060912001809124010E94620254
:10018000F601EE0FFF1FE050FF4F208140E060912D
:100190002001809124010E94620261E0809122018D
:1001A0000E942C0264EF71E080E090E00E94550113
:1001B00021960E5F1F4FC436D10509F0BACFDF91EB
:1001C000CF911F910F91FF90EF90DF90CF90089506
:1001D0001F920F920FB60F9211242F933F938F937C
:1001E0009F93AF93BF938091270190912801A09195
:1001F0002901B0912A013091260123E0230F2D37E8
:1002000020F40196A11DB11D05C026E8230F02961A
:10021000A11DB11D209326018093270190932801F1
:10022000A0932901B0932A0180912B0190912C0178
:10023000A0912D01B0912E010196A11DB11D8093B9
:100240002B0190932C01A0932D01B0932E01BF910F
:10025000AF919F918F913F912F910F900FBE0F9073
:100260001F9018953FB7F89480912B0190912C0125
:10027000A0912D01B0912E0126B5A89B05C02F3F5E
:1002800019F00196A11DB11D3FBF6627782F892F58
:100290009A2F620F711D811D911D42E0660F771F1D
:1002A000881F991F4A95D1F708958F929F92AF9218
:1002B000BF92CF92DF92EF92FF926B017C010E947E
:1002C00032014B015C01C114D104E104F104F1F0ED
:1002D0000E94B1020E943201681979098A099B09BA
:1002E000683E73408105910570F321E0C21AD10880
:1002F000E108F10888EE880E83E0981EA11CB11C6D
:10030000C114D104E104F10429F7DDCFFF90EF908F
:10031000DF90CF90BF90AF909F908F90089578948A
:1003200084B5826084BD84B5816084BD85B58260FA
:1003300085BD85B5816085BDEEE6F0E08081816098
:100340008083E1E8F0E01082808182608083808198
:1003500081608083E0E8F0E0808181608083E1EB70
:10036000F0E0808184608083E0EBF0E08081816058
:100370008083EAE7F0E0808184608083808182600E
:1003800080838081816080838081806880831092F7
:10039000C1000895833081F028F4813099F08230D3
:1003A000A1F008958730A9F08830B9F08430D1F4F5
:1003B000809180008F7D03C0809180008F77809333
:1003C0008000089584B58F7702C084B58F7D84BD89
:1003D00008958091B0008F7703C08091B0008F7D29
:1003E0008093B0000895CF93DF9390E0FC01E45830
:1003F000FF4F2491FC01E057FF4F8491882349F17E
:1004000090E0880F991FFC01E255FF4FA591B49130
:100410008C559F4FFC01C591D4919FB7611108C0C5
:10042000F8948C91209582238C93888182230AC032
:10043000623051F4F8948C91322F309583238C9351
:100440008881822B888304C0F8948C91822B8C93B2
:100450009FBFDF91CF9108950F931F93CF93DF93A9
:100460001F92CDB7DEB7282F30E0F901E859FF4FD2
:100470008491F901E458FF4F1491F901E057FF4FBF
:1004800004910023C9F0882321F069830E94CA01E6
:100490006981E02FF0E0EE0FFF1FEC55FF4FA591B3
:1004A000B4919FB7F8948C91611103C0109581238A
:1004B00001C0812B8C939FBF0F90DF91CF911F9133
:1004C0000F910895BF92CF92DF92EF92FF920F9318
:1004D0001F93CF93DF93C82ED62EB42EC7E0D0E063
:1004E000022F10E087E0E82EF12CB1100AC0F701CE
:1004F000EC1BFD0BB80102C075956795EA95E2F714
:1005000007C0B8010C2E02C0759567950A94E2F7F2
:10051000617077278C2D0E942C0261E08D2D0E9446
:100520002C0260E08D2D0E942C022197F0F6DF91C5
:10053000CF911F910F91FF90EF90DF90CF90BF90E0
:10054000089508950E948F010E94A1020E947B00DD
:10055000C0E0D0E00E948A002097E1F30E940000F2
:10056000F9CF089597FB072E16F4009407D077FD76
:1005700009D00E94C60207FC05D03EF490958195F3
:100580009F4F0895709561957F4F0895AA1BBB1BDF
:1005900051E107C0AA1FBB1FA617B70710F0A61B83
:1005A000B70B881F991F5A95A9F780959095BC01A4
:0805B000CD010895F894FFCF7E
:1005B800FC006000DA00F2006600B600BE00E00051
:1005C800FE00F600EE003E009C007A009E008E00C1
:0605D8000A000800060005
:00000001FF
