:100000000C9462000C948A000C948A000C948A0070
:100010000C948A000C948A000C948A000C948A0038
:100020000C948A000C948A000C948A000C948A0028
:100030000C948A000C948A000C948A000C948A0018
:100040000C9443030C948A000C948A000C948A004C
:100050000C948A000C948A000C948A000C948A00F8
:100060000C948A000C948A000000000024002700F1
:100070002A0000000000250028002B0000000000DE
:1000800023002600290004040404040404040202DA
:100090000202020203030303030301020408102007
:1000A0004080010204081020010204081020000012
:1000B0000008000201000003040700000000000027
:1000C00000004C0411241FBECFEFD8E0DEBFCDBF2F
:1000D00011E0A0E0B1E0E4E3F9E002C005900D9288
:1000E000A830B107D9F721E0A8E0B1E001C01D9226
:1000F000AF32B207E1F710E0C2E6D0E004C02197CA
:10010000FE010E948D04C136D107C9F70E948D03FC
:100110000C9498040C940000CF92DF92EF92FF921F
:100120000F931F93CF93DF936C017A018B01C0E093
:10013000D0E0CE15DF0589F0D8016D918D01D60193
:10014000ED91FC910190F081E02DC6010995892B7C
:1001500011F47E0102C02196ECCFC701DF91CF914F
:100160001F910F91FF90EF90DF90CF900895833013
:1001700081F028F4813099F08230A1F00895873021
:10018000A9F08830B9F08430D1F4809180008F7D5F
:1001900003C0809180008F7780938000089584B59C
:1001A0008F7702C084B58F7D84BD08958091B000A3
:1001B0008F7703C08091B0008F7D8093B000089549
:1001C000CF93DF93282F30E0F901E255FF4F849160
:1001D000F901E656FF4FD491F901EA57FF4FC49158
:1001E000CC2391F081110E94B700EC2FF0E0EE0FCC
:1001F000FF1FE458FF4FA591B491EC91ED2381E0EE
:1002000090E021F480E002C080E090E0DF91CF91A7
:1002100008951F93CF93DF93282F30E0F901E25523
:10022000FF4F8491F901E656FF4FD491F901EA5747
:10023000FF4FC491CC23C9F0162F81110E94B70043
:10024000EC2FF0E0EE0FFF1FEE58FF4FA591B49199
:100250008FB7F894111105C09C91ED2FE095E9231B
:1002600002C0EC91ED2BEC938FBFDF91CF911F91EA
:100270000895CF93DF9390E0FC01E656FF4F249161
:10028000FC01EA57FF4F8491882361F190E0880FC9
:10029000991FFC01E859FF4FC591D491FC01EE581C
:1002A000FF4FA591B491611109C09FB7F89488815F
:1002B000209582238883EC912E230BC0623061F459
:1002C0009FB7F8943881822F809583238883EC919F
:1002D0002E2B2C939FBF06C08FB7F894E8812E2B4E
:1002E00028838FBFDF91CF910895CF93DF93EC01E7
:1002F00060E08E810E94090161E08E810E94090107
:1003000060E08E810E9409018BE891E00197F1F78E
:10031000DF91CF910895CF92DF92EF92FF920F93EA
:100320001F93CF93DF937C016C0187E0C80ED11C33
:10033000C0E0D0E0062F10E0B8010C2E02C0759589
:1003400067950A94E2F76170F60181916F010E944E
:1003500009012196C430D10579F7C701DF91CF910A
:100360001F910F91FF90EF90DF90CF900C9475014B
:10037000CF92DF92EF92FF920F931F93CF93DF9371
:10038000EC01F62E642F8C810E9409018D818F3F34
:1003900019F060E00E9409018F850F2D10E084FFA5
:1003A00025C06E0187E0C80ED11CE12CF12CB801EC
:1003B0000E2C02C0759567950A94E2F76170F601FC
:1003C00081916F010E940901FFEFEF1AFF0A88E097
:1003D000E816F10461F7CE01DF91CF911F910F91E3
:1003E000FF90EF90DF90CF900C947501B80184E0FE
:1003F000759567958A95E1F7CE010E948B016F2D67
:10040000CE01DF91CF911F910F91FF90EF90DF9080
:10041000CF900C948B0141E00E94B80181E090E004
:10042000089540E00C94B80161E00E9411028BE352
:100430009FE10197F1F70895EF92FF920F931F93B9
:10044000CF93DF93EC01623018F08F8588608F873F
:100450006B8B1C8A80E48D8B80E18E8B80E58F8B8B
:1004600061E08C810E9439018D818F3F19F061E03C
:100470000E94390161E08E810E9439017E0187E08E
:10048000E80EF11C00E010E08F8584FD03C084E0DD
:1004900090E002C088E090E0081719074CF461E092
:1004A000F70181917F010E9439010F5F1F4FECCF4F
:1004B0008BE39DE00197F1F760E08C810E940901D8
:1004C00060E08E810E9409018D818F3F19F060E00C
:1004D0000E9409016F8564FD1DC063E0CE010E948A
:1004E0008B010BE416E4C8010197F1F763E0CE013C
:1004F0000E948B01C8010197F1F763E0CE010E94D1
:100500008B0183E592E00197F1F762E0CE010E9452
:100510008B0116C06062CE010E9411028BE496E44A
:100520000197F1F76F856062CE010E94110283E5A9
:1005300092E00197F1F76F856062CE010E9411028F
:100540006F856062CE010E94110284E0888B6CE0AE
:10055000CE010E941102CE010E94140282E0898B1A
:1005600066E0CE01DF91CF911F910F91FF90EF9048
:100570000C9411028F929F92AF92BF920F931F9390
:10058000CF93DF93CDB7DEB7A1970FB6F894DEBF58
:100590000FBECDBF19A2423008F44AE08E010F5DB4
:1005A0001F4F842E912CA12CB12CA50194010E94E7
:1005B0006B04E62FB901CA0101501109EA3014F4A5
:1005C000E05D01C0E95CD801EC93232B242B252BA3
:1005D00061F70115110571F0F80101900020E9F7AC
:1005E0003197AF01401B510BB80187E191E00E94A8
:1005F0008C0002C080E090E0A1960FB6F894DEBFB8
:100600000FBECDBFDF91CF911F910F91BF90AF90E3
:100610009F908F900895CF92DF92EF92FF92CF93A9
:10062000DF936C01990FEE08FF08F7FE1FC0E09101
:100630001701F09118010190F081E02D6DE287E142
:1006400091E00995EC0166277727CB016C197D09AC
:100650008E099F094AE00E94BA028C0F9D1FDF910C
:10066000CF91FF90EF90DF90CF9008954AE0C701BF
:10067000B601DF91CF91FF90EF90DF90CF900C9477
:10068000BA020E9493041F920F920FB60F92112488
:100690002F933F938F939F93AF93BF9380910D01BF
:1006A00090910E01A0910F01B091100130910C01B9
:1006B00023E0230F2D3720F40196A11DB11D05C0A5
:1006C00026E8230F0296A11DB11D20930C018093F3
:1006D0000D0190930E01A0930F01B0931001809132
:1006E000080190910901A0910A01B0910B010196B6
:1006F000A11DB11D8093080190930901A0930A01E7
:10070000B0930B01BF91AF919F918F913F912F912A
:100710000F900FBE0F901F901895789484B582604B
:1007200084BD84B5816084BD85B5826085BD85B595
:10073000816085BD80916E00816080936E00109213
:10074000810080918100826080938100809181008E
:10075000816080938100809180008160809380001F
:100760008091B10084608093B1008091B00081607D
:100770008093B00080917A00846080937A008091A9
:100780007A00826080937A0080917A008160809301
:100790007A0080917A00806880937A001092C1007C
:1007A00060E082E00E94390160E083E00E9439014C
:1007B00062E087E191E00E941C02C0E0D0E082E0AC
:1007C0000E94E000209115013091160182179307D5
:1007D00051F18130910551F42091130130911401B0
:1007E0002F5F3F4F30931401209313019093160114
:1007F0008093150187E191E00E941402E1E080916D
:100800002A018111E0E0E195F0E0E95EFE4F6489A4
:10081000606887E191E00E9411028091130190913C
:1008200014010E940B0383E00E94E000209111015B
:10083000309112018217930749F1009751F42091EA
:100840001301309114012150310930931401209388
:100850001301909312018093110187E191E00E94AE
:100860001402E1E080912A018111E0E0E195F0E0DD
:10087000E95EFE4F6489606887E191E00E941102A1
:1008800080911301909114010E940B03209709F4A9
:1008900096CF0E94000093CFE7E1F1E0138212822D
:1008A00084E091E09183808389E084838FEF858366
:1008B00088E0868387E0878386E0808785E081877C
:1008C00084E082871386148615861686178661E073
:1008D000CF010C941C02A1E21A2EAA1BBB1BFD0126
:1008E0000DC0AA1FBB1FEE1FFF1FA217B307E4070F
:1008F000F50720F0A21BB30BE40BF50B661F771F67
:10090000881F991F1A9469F7609570958095909546
:100910009B01AC01BD01CF010895EE0FFF1F0590B3
:10092000F491E02D099481E090E0F8940C949804FF
:04093000F894FFCF69
:08093400000000000B028C0022
:107E0000112484B714BE81FFF0D085E080938100F7
:107E100082E08093C00088E18093C10086E0809377
:107E2000C20080E18093C4008EE0C9D0259A86E02C
:107E300020E33CEF91E0309385002093840096BBD3
:107E4000B09BFECF1D9AA8958150A9F7CC24DD24C4
:107E500088248394B5E0AB2EA1E19A2EF3E0BF2EE7
:107E6000A2D0813461F49FD0082FAFD0023811F036
:107E7000013811F484E001C083E08DD089C08234E0
:107E800011F484E103C0853419F485E0A6D080C0E4
:107E9000853579F488D0E82EFF2485D0082F10E0AE
:107EA000102F00270E291F29000F111F8ED06801E7
:107EB0006FC0863521F484E090D080E0DECF843638
:107EC00009F040C070D06FD0082F6DD080E0C81688
:107ED00080E7D80618F4F601B7BEE895C0E0D1E017
:107EE00062D089930C17E1F7F0E0CF16F0E7DF06D8
:107EF00018F0F601B7BEE89568D007B600FCFDCFD4
:107F0000A601A0E0B1E02C9130E011968C91119780
:107F100090E0982F8827822B932B1296FA010C0160
:107F200087BEE89511244E5F5F4FF1E0A038BF0790
:107F300051F7F601A7BEE89507B600FCFDCF97BE46
:107F4000E89526C08437B1F42ED02DD0F82E2BD052
:107F50003CD0F601EF2C8F010F5F1F4F84911BD097
:107F6000EA94F801C1F70894C11CD11CFA94CF0C13
:107F7000D11C0EC0853739F428D08EE10CD085E9AC
:107F80000AD08FE07ACF813511F488E018D01DD067
:107F900080E101D065CF982F8091C00085FFFCCF94
:107FA0009093C60008958091C00087FFFCCF809118
:107FB000C00084FD01C0A8958091C6000895E0E648
:107FC000F0E098E1908380830895EDDF803219F02E
:107FD00088E0F5DFFFCF84E1DECF1F93182FE3DFCA
:107FE0001150E9F7F2DF1F91089580E0E8DFEE27F6
:047FF000FF270994CA
:027FFE00040479
:0400000300007E007B
:00000001FF
