:100000000C9461000C9473000C9473000C947300B6
:100010000C9473000C9473000C9473000C94730094
:100020000C9473000C9473000C9473000C94730084
:100030000C9473000C9473000C9473000C94730074
:100040000C940A010C9473000C9473000C947300CC
:100050000C9473000C9473000C9473000C94730054
:100060000C9473000C94730000000000240027001F
:100070002A0000000000250028002B0000000000DE
:1000800023002600290004040404040404040202DA
:100090000202020203030303030301020408102007
:1000A0004080010204081020010204081020000012
:1000B0000008000201000003040700000000000027
:1000C000000011241FBECFEFD8E0DEBFCDBF21E07E
:1000D000A0E0B1E001C01D92A930B207E1F70E9493
:1000E00054010C94DA010C940000833081F028F460
:1000F000813099F08230A1F008958730A9F08830DE
:10010000B9F08430D1F4809180008F7D03C080915C
:1001100080008F7780938000089584B58F7702C028
:1001200084B58F7D84BD08958091B0008F7703C022
:100130008091B0008F7D8093B00008951F93CF937E
:10014000DF93282F30E0F901E255FF4F8491F90148
:10015000E656FF4FD491F901EA57FF4FC491CC23E3
:10016000C9F0162F81110E947500EC2FF0E0EE0F00
:10017000FF1FEE58FF4FA591B4918FB7F89411115E
:1001800005C09C91ED2FE095E92302C0EC91ED2B89
:10019000EC938FBFDF91CF911F910895CF93DF93A1
:1001A00090E0FC01E656FF4F2491FC01EA57FF4F17
:1001B0008491882361F190E0880F991FFC01E85930
:1001C000FF4FC591D491FC01EE58FF4FA591B4911A
:1001D000611109C09FB7F894888120958223888394
:1001E000EC912E230BC0623061F49FB7F8943881F4
:1001F000822F809583238883EC912E2B2C939FBF95
:1002000006C08FB7F894E8812E2B28838FBFDF912B
:10021000CF9108951F920F920FB60F9211242F9332
:100220003F938F939F93AF93BF93809105019091DC
:100230000601A0910701B09108013091040123E06B
:10024000230F2D3720F40196A11DB11D05C026E80E
:10025000230F0296A11DB11D209304018093050177
:1002600090930601A0930701B093080180910001CB
:1002700090910101A0910201B09103010196A11D8D
:10028000B11D8093000190930101A0930201B093EE
:100290000301BF91AF919F918F913F912F910F904B
:1002A0000FBE0F901F901895789484B5826084BD1E
:1002B00084B5816084BD85B5826085BD85B581606A
:1002C00085BD80916E00816080936E0010928100E8
:1002D00080918100826080938100809181008160A3
:1002E0008093810080918000816080938000809164
:1002F000B10084608093B1008091B00081608093F0
:10030000B00080917A00846080937A0080917A00B6
:10031000826080937A0080917A00816080937A0075
:1003200080917A00806880937A001092C10061E029
:1003300082E00E94CE0061E083E00E94CE0060E097
:1003400084E00E94CE00C2EBD0E00EE910E03AE873
:10035000E32E30E0F32E40E0C42E40E0D42EFE0128
:100360008491F801A490F701B490BB2079F0811139
:100370000E9475008B2D90E0880F991F84589F4F25
:10038000FC01A591B4918C91A82231F460E082E047
:100390000E949E0061E005C061E082E00E949E0034
:1003A00060E083E00E949E00C114D104C1F20E946B
:0803B0000000D5CFF894FFCF47
:107E0000112484B714BE81FFF0D085E080938100F7
:107E100082E08093C00088E18093C10086E0809377
:107E2000C20080E18093C4008EE0C9D0259A86E02C
:107E300020E33CEF91E0309385002093840096BBD3
:107E4000B09BFECF1D9AA8958150A9F7CC24DD24C4
:107E500088248394B5E0AB2EA1E19A2EF3E0BF2EE7
:107E6000A2D0813461F49FD0082FAFD0023811F036
:107E7000013811F484E001C083E08DD089C08234E0
:107E800011F484E103C0853419F485E0A6D080C0E4
:107E9000853579F488D0E82EFF2485D0082F10E0AE
:107EA000102F00270E291F29000F111F8ED06801E7
:107EB0006FC0863521F484E090D080E0DECF843638
:107EC00009F040C070D06FD0082F6DD080E0C81688
:107ED00080E7D80618F4F601B7BEE895C0E0D1E017
:107EE00062D089930C17E1F7F0E0CF16F0E7DF06D8
:107EF00018F0F601B7BEE89568D007B600FCFDCFD4
:107F0000A601A0E0B1E02C9130E011968C91119780
:107F100090E0982F8827822B932B1296FA010C0160
:107F200087BEE89511244E5F5F4FF1E0A038BF0790
:107F300051F7F601A7BEE89507B600FCFDCF97BE46
:107F4000E89526C08437B1F42ED02DD0F82E2BD052
:107F50003CD0F601EF2C8F010F5F1F4F84911BD097
:107F6000EA94F801C1F70894C11CD11CFA94CF0C13
:107F7000D11C0EC0853739F428D08EE10CD085E9AC
:107F80000AD08FE07ACF813511F488E018D01DD067
:107F900080E101D065CF982F8091C00085FFFCCF94
:107FA0009093C60008958091C00087FFFCCF809118
:107FB000C00084FD01C0A8958091C6000895E0E648
:107FC000F0E098E1908380830895EDDF803219F02E
:107FD00088E0F5DFFFCF84E1DECF1F93182FE3DFCA
:107FE0001150E9F7F2DF1F91089580E0E8DFEE27F6
:047FF000FF270994CA
:027FFE00040479
:0400000300007E007B
:00000001FF
