:100000000C9461000C9473000C9473000C947300B6
:100010000C9473000C9473000C9473000C94730094
:100020000C9473000C9473000C9473000C94730084
:100030000C9473000C9473000C9473000C94730074
:100040000C94CB000C9473000C9473000C9473000C
:100050000C9473000C9473000C9473000C94730054
:100060000C9473000C94730000000000240027001F
:100070002A000000000023002600290000000000E4
:10008000250028002B0004040404040404040202D4
:100090000202020203030303030301020408102007
:1000A0004080010204081020010204081020000012
:1000B0000008000201000003040700000000000027
:1000C000000011241FBECFEFD8E0DEBFCDBF21E07E
:1000D000A0E0B1E001C01D92AB30B207E1F70E9491
:1000E00015010C94F2010C940000833081F028F487
:1000F000813099F08230A1F008958730A9F08830DE
:10010000B9F08430D1F4809180008F7D03C080915C
:1001100080008F7780938000089584B58F7702C028
:1001200084B58F7D84BD08958091B0008F7703C022
:100130008091B0008F7D8093B00008951F93CF937E
:10014000DF93EBEBF0E09491E7EAF0E0D491E3E9A0
:10015000F0E0C491CC23D9F0182F992319F0892FFE
:100160000E947500EC2FF0E0EE0FFF1FE458FF4FE8
:10017000A591B4918FB7F894111105C09C91ED2F02
:10018000E095E92302C0EC91ED2BEC938FBFDF915A
:10019000CF911F9108951F920F920FB60F921124C5
:1001A0002F933F938F939F93AF93BF9380910701BA
:1001B00090910801A0910901B0910A0130910601C6
:1001C00023E0230F2D3720F40196A11DB11D05C09A
:1001D00026E8230F0296A11DB11D209306018093EE
:1001E000070190930801A0930901B0930A0180913F
:1001F000020190910301A0910401B09105010196C3
:10020000A11DB11D8093020190930301A0930401ED
:10021000B0930501BF91AF919F918F913F912F9125
:100220000F900FBE0F901F901895789484B5826040
:1002300084BD84B5816084BD85B5826085BD85B58A
:10024000816085BD80916E00816080936E00109208
:100250008100809181008260809381008091810083
:100260008160809381008091800081608093800014
:100270008091B10084608093B1008091B000816072
:100280008093B00080917A00846080937A0080919E
:100290007A00826080937A0080917A0081608093F6
:1002A0007A0080917A00806880937A001092C10071
:1002B000C6EAD0E0FE01249102E910E0F801849141
:1002C0008823C9F090E0880F991FFC01E859FF4F7F
:1002D000A591B491FC01E458FF4F459154913FB76B
:1002E000F8949C91822F809598239C93FA01908199
:1002F000892380833FBFE7EAF0E02491E3E9F0E05F
:100300008491882399F090E0880F991FFC01E859A7
:10031000FF4FA591B49184589F4FFC014591549192
:100320008FB7F894EC91E22BEC938FBF80E090E0D4
:100330000E94DC0190E090930101809300018130E4
:10034000910561F481E00E949E009AEBE92E90E015
:10035000F92E20E0C22E20E0D22E21C0892BA9F751
:1003600080E0F1CF81110E947500EB2DF0E0EE0FDF
:10037000FF1FCF018E589F4FFC01A591B4918C9126
:10038000A822A9F081E00E949E0061E080E090E058
:100390000E94E401C114D10411F00E940000F70191
:1003A0008491FE01A490F801B490B110DBCF80E0FD
:1003B0000E949E0060E0EACFF999FECF92BD81BD18
:1003C000F89A992780B50895262FF999FECF1FBA7C
:1003D00092BD81BD20BD0FB6F894FA9AF99A0FBE6E
:0803E00001960895F894FFCF87
:00000001FF
