:100000000C945D000C9485000C9485000C94850084
:100010000C9485000C9485000C9485000C9485004C
:100020000C9485000C9485000C9485000C9485003C
:100030000C9485000C9485000C9485000C9485002C
:100040000C94A6030C9485000C9474030C944E033A
:100050000C9485000C9485000C9485000C9485000C
:100060000C9485000C94850000000008000201003B
:100070000003040700000000000000000000000072
:10008000250028002B0000000000240027002A0083
:10009000040404040404040402020202020203032E
:1000A0000303030301020408102040800102040836
:1000B0001020010204081020F00311241FBECFEF0E
:1000C000D8E0DEBFCDBF11E0A0E0B1E0E2EEFAE0A3
:1000D00002C005900D92A434B107D9F724E0A4E43E
:1000E000B1E001C01D92AE35B207E1F710E0CDE5F9
:1000F000D0E004C02197FE010E946405CC35D107F1
:10010000C9F70E943B040C946F050C94000090E02A
:10011000FC01EC55FF4F2491FC01E057FF4F849107
:10012000882399F090E0880F991FFC01EA57FF4F50
:10013000A591B491FC01E458FF4F859194918FB73C
:10014000F894EC91E22BEC938FBF0895CF92DF925D
:10015000EF92FF920F931F93CF93DF936C017A017D
:100160008B01C0E0D0E0CE15DF0589F0D8016D919C
:100170008D01D601ED91FC910190F081E02DC60139
:100180000995892B11F47E0102C02196ECCFC7019D
:10019000DF91CF911F910F91FF90EF90DF90CF9063
:1001A0000895FC01918D828D981761F0828DDF0199
:1001B000A80FB11D5D968C91928D9F5F9F73928F5A
:1001C00090E008958FEF9FEF0895FC01918D828D4F
:1001D000981731F0828DE80FF11D858D90E008951C
:1001E0008FEF9FEF0895FC01918D228D892F90E074
:1001F000805C9F4F821B91098F739927089589EA2C
:1002000093E00E94F30021E0892B09F420E0822F83
:100210000895FC01848DDF01A80FB11DA35ABF4FC3
:100220002C91848D90E001968F739927848FA689F5
:10023000B7892C93A089B1898C9180648C93938D1C
:10024000848D981306C00288F389E02D80818F7D0C
:1002500080830895EF92FF920F931F93CF93DF93C4
:10026000EC0181E0888F9B8D8C8D981305C0E88907
:10027000F989808185FD24C0F62E0B8D10E00F5F7B
:100280001F4F0F731127E02E8C8DE8120CC00FB694
:1002900007FCFACFE889F989808185FFF5CFCE0187
:1002A0000E940901F1CF8B8DFE01E80FF11DE35A89
:1002B000FF4FF0820B8FEA89FB898081806207C043
:1002C000EE89FF896083E889F98980818064808371
:1002D00081E090E0DF91CF911F910F91FF90EF901F
:1002E0000895CF93DF93EC01888D8823C9F0EA89C4
:1002F000FB89808185FD05C0A889B9898C9186FD1F
:100300000FC00FB607FCF5CF808185FFF2CFA8891B
:10031000B9898C9185FFEDCFCE010E940901E7CF0D
:10032000DF91CF91089580E090E0892B29F00E9421
:10033000FF0081110C940000089590E0FC01E85941
:10034000FF4F3491FC01EC55FF4F2491FC01E05725
:10035000FF4FE491EE2309F43BC0332339F13330EE
:1003600091F038F43130A9F0323001F584B58F7D49
:1003700012C0373091F03830A1F03430B9F48091A8
:1003800080008F7D03C0809180008F7780938000F4
:100390000DC084B58F7784BD09C08091B0008F7780
:1003A00003C08091B0008F7D8093B000F0E0EE0F2D
:1003B000FF1FE458FF4FA591B4918FB7F894EC91CB
:1003C000611103C020952E2301C02E2B2C938FBFCB
:1003D00008953FB7F8948091490190914A01A09106
:1003E0004B01B0914C0126B5A89B05C02F3F19F0D9
:1003F0000196A11DB11D3FBFBA2FA92F982F8827A5
:10040000820F911DA11DB11DBC01CD0142E0660FFF
:10041000771F881F991F4A95D1F70895CF93DF93CF
:10042000EC0160E08E810E949D0161E08E810E945E
:100430009D0160E08E810E949D018BE891E0019713
:10044000F1F7DF91CF910895CF92DF92EF92FF9273
:100450000F931F93CF93DF937C016C0187E0C80E4D
:10046000D11CC0E0D0E0062F10E0B8010C2E02C075
:10047000759567950A94E2F76170F60181916F01B5
:100480000E949D012196C430D10579F7C701DF9103
:10049000CF911F910F91FF90EF90DF90CF900C9430
:1004A0000E02CF92DF92EF92FF920F931F93CF93A2
:1004B000DF93EC01F62E642F8C810E949D018D81CB
:1004C0008F3F19F060E00E949D018F850F2D10E095
:1004D00084FF25C06E0187E0C80ED11CE12CF12CF1
:1004E000B8010E2C02C0759567950A94E2F7617009
:1004F000F60181916F010E949D01FFEFEF1AFF0A43
:1005000088E0E816F10461F7CE01DF91CF911F91E9
:100510000F91FF90EF90DF90CF900C940E02B801F6
:1005200084E0759567958A95E1F7CE010E942402D3
:100530006F2DCE01DF91CF911F910F91FF90EF9022
:10054000DF90CF900C94240241E00E94510281E0A0
:1005500090E0089540E00C945102EF92FF920F93C7
:100560001F93CF93DF93EC01623018F08F85886082
:100570008F876B8B1C8A80E48D8B80E18E8B80E56E
:100580008F8B8C810E9487008D818F3F11F00E949C
:1005900087008E810E9487007E0187E0E80EF11CB3
:1005A00000E010E08F8584FD03C084E090E002C08D
:1005B00088E090E00817190744F4F70181917F0162
:1005C0000E9487000F5F1F4FEDCF8BE39DE00197E7
:1005D000F1F760E08C810E949D0160E08E810E94B5
:1005E0009D018D818F3F19F060E00E949D016F8514
:1005F00064FD1DC063E0CE010E9424020BE416E4FA
:10060000C8010197F1F763E0CE010E942402C801FE
:100610000197F1F763E0CE010E94240283E592E0A6
:100620000197F1F762E0CE010E94240216C06062D9
:10063000CE010E94AA028BE496E40197F1F76F8540
:100640006062CE010E94AA0283E592E00197F1F771
:100650006F856062CE010E94AA026F856062CE0142
:100660000E94AA0284E0888B6CE0CE010E94AA025C
:1006700061E0CE010E94AA028BE39FE10197F1F7AE
:1006800082E0898B66E0CE01DF91CF911F910F91BF
:10069000FF90EF900C94AA020E946A051F920F929D
:1006A0000FB60F9211242F933F934F935F936F9345
:1006B0007F938F939F93AF93BF93EF93FF9389EAB9
:1006C00093E00E940901FF91EF91BF91AF919F913B
:1006D0008F917F916F915F914F913F912F910F90EB
:1006E0000FBE0F901F9018951F920F920FB60F928A
:1006F00011242F938F939F93EF93FF93E091B9036E
:10070000F091BA038081E091BF03F091C00382FDB4
:1007100012C090818091C2038F5F8F732091C303B9
:10072000821751F0E091C203F0E0E755FC4F958F3E
:100730008093C20301C08081FF91EF919F918F91BF
:100740002F910F900FBE0F901F9018951F920F9230
:100750000FB60F9211242F933F938F939F93AF93D4
:10076000BF938091450190914601A0914701B091BE
:1007700048013091440123E0230F2D3720F40196E6
:10078000A11DB11D05C026E8230F0296A11DB11DB4
:10079000209344018093450190934601A093470123
:1007A000B09348018091490190914A01A0914B0179
:1007B000B0914C010196A11DB11D80934901909308
:1007C0004A01A0934B01B0934C01BF91AF919F910F
:1007D0008F913F912F910F900FBE0F901F90189502
:1007E000E9EAF3E01382128288EE93E0A0E0B0E041
:1007F00084839583A683B78384E091E0918380838B
:1008000085EC90E09587848784EC90E097878687D5
:1008100080EC90E0918B808B81EC90E0938B828BCD
:1008200082EC90E0958B848B86EC90E0978B868BA6
:10083000118E128E138E148EE6E4F4E0138212826F
:1008400084E191E09183808382E084838FEF8583CC
:1008500083E0868384E0878385E0808786E08187E4
:1008600087E082871386148615861686178661E0D0
:10087000CF010C94AD02789484B5826084BD84B5B8
:10088000816084BD85B5826085BD85B5816085BD8B
:1008900080916E00816080936E0010928100809143
:1008A00081008260809381008091810081608093CB
:1008B0008100809180008160809380008091B100F0
:1008C00084608093B1008091B00081608093B0001B
:1008D00080917A00846080937A0080917A008260AF
:1008E00080937A0080917A00816080937A00809171
:1008F0007A00806880937A001092C100E091B90379
:10090000F091BA0382E08083E091B503F091B603E1
:100910001082E091B703F091B8038FEC80831092BE
:10092000C103E091BD03F091BE0386E08083E091B6
:10093000BB03F091BC03808180618083E091BB03A5
:10094000F091BC03808188608083E091BB03F091CB
:10095000BC03808180688083E091BB03F091BC037D
:1009600080818F7D808362E086E494E00E94AD0206
:1009700048E050E068E171E086E494E00E94A6005F
:100980004EE150E061E271E089EA93E00E94A60046
:1009900042E050E060E471E089EA93E00E94A60042
:1009A000CBE3DFE189EA93E00E94F3001816190611
:1009B0000CF087C00091A7031091A80389EA93E087
:1009C0000E94D100F801ED54FE4F8083833209F07C
:1009D0006EC061E086E494E00E94AA02CE01019715
:1009E000F1F7E0915904E23010F4E15001C0E1E088
:1009F000F0E0EA5BFB4F6489605F606886E494E046
:100A00000E94AA0280914D0190914E012091A7036E
:100A10003091A803281739070CF449C0E091460427
:100A2000F0914704DC01AD54BE4F0190F081E02D00
:100A30006C9186E494E0099560915704862F81605B
:100A400080935704656086E494E00E94AA020E94A5
:100A5000E9014B015C0188ECC82ED12CE12CF12C72
:100A60000E94E901DC01CB0188199909AA09BB0997
:100A7000883E9340A105B10558F021E0C21AD10883
:100A8000E108F10888EE880E83E0981EA11CB11CD5
:100A9000C114D104E104F10419F780914D01909142
:100AA0004E01019690934E0180934D01ABCF809102
:100AB000A7039091A80301969093A8038093A7039E
:100AC00071CF0E9493016ECFEE0FFF1F0590F4913E
:100AD000E02D099481E090E0F8940C946F05F8946F
:020AE000FFCF46
:100AE200000000002A01A600F300D100E500710118
:100AF20000000000A402A60077656C636F6D65219B
:100B020000656E746572206C696E657320746F2067
:100B12006265207072696E74206F6E206C6364006F
:040B22000D0A0000B8
:107E0000112484B714BE81FFF0D085E080938100F7
:107E100082E08093C00088E18093C10086E0809377
:107E2000C20080E18093C4008EE0C9D0259A86E02C
:107E300020E33CEF91E0309385002093840096BBD3
:107E4000B09BFECF1D9AA8958150A9F7CC24DD24C4
:107E500088248394B5E0AB2EA1E19A2EF3E0BF2EE7
:107E6000A2D0813461F49FD0082FAFD0023811F036
:107E7000013811F484E001C083E08DD089C08234E0
:107E800011F484E103C0853419F485E0A6D080C0E4
:107E9000853579F488D0E82EFF2485D0082F10E0AE
:107EA000102F00270E291F29000F111F8ED06801E7
:107EB0006FC0863521F484E090D080E0DECF843638
:107EC00009F040C070D06FD0082F6DD080E0C81688
:107ED00080E7D80618F4F601B7BEE895C0E0D1E017
:107EE00062D089930C17E1F7F0E0CF16F0E7DF06D8
:107EF00018F0F601B7BEE89568D007B600FCFDCFD4
:107F0000A601A0E0B1E02C9130E011968C91119780
:107F100090E0982F8827822B932B1296FA010C0160
:107F200087BEE89511244E5F5F4FF1E0A038BF0790
:107F300051F7F601A7BEE89507B600FCFDCF97BE46
:107F4000E89526C08437B1F42ED02DD0F82E2BD052
:107F50003CD0F601EF2C8F010F5F1F4F84911BD097
:107F6000EA94F801C1F70894C11CD11CFA94CF0C13
:107F7000D11C0EC0853739F428D08EE10CD085E9AC
:107F80000AD08FE07ACF813511F488E018D01DD067
:107F900080E101D065CF982F8091C00085FFFCCF94
:107FA0009093C60008958091C00087FFFCCF809118
:107FB000C00084FD01C0A8958091C6000895E0E648
:107FC000F0E098E1908380830895EDDF803219F02E
:107FD00088E0F5DFFFCF84E1DECF1F93182FE3DFCA
:107FE0001150E9F7F2DF1F91089580E0E8DFEE27F6
:047FF000FF270994CA
:027FFE00040479
:0400000300007E007B
:00000001FF
