:100000000C9435000C945D000C945D000C945D0024
:100010000C945D000C945D000C945D000C945D00EC
:100020000C945D000C945D000C945D000C945D00DC
:100030000C945D000C945D000C945D000C945D00CC
:100040000C947A010C945D000C94EA010C94C401A8
:100050000C945D000C945D000C945D000C945D00AC
:100060000C945D000C945D00880311241FBECFEF3B
:10007000D8E0DEBFCDBF12E0A0E0B1E0EEE6F8E0F0
:1000800002C005900D92A23BB107D9F723E0A2EB85
:10009000B2E001C01D92A835B207E1F710E0C5E358
:1000A000D0E004C02197FE010E94D703C433D107DA
:1000B000C9F70E941C020C9435040C940000CF92E6
:1000C000DF92EF92FF920F931F93CF93DF936C0118
:1000D0007A018B01C0E0D0E0CE15DF0589F0D801B0
:1000E0006D918D01D601ED91FC910190F081E02D93
:1000F000C6010995892B11F47E0102C02196ECCF2F
:10010000C701DF91CF911F910F91FF90EF90DF908A
:10011000CF900895FC01918D828D981761F0828DAA
:10012000DF01A80FB11D5D968C91928D9F5F9F732B
:10013000928F90E008958FEF9FEF0895FC01918DCD
:10014000828D981731F0828DE80FF11D858D90E03A
:1001500008958FEF9FEF0895FC01918D228D892FD7
:1001600090E0805C9F4F821B91098F7399270895BF
:100170008BEB92E00E94AC0021E0892B09F420E097
:10018000822F0895FC01848DDF01A80FB11DA35AB1
:10019000BF4F2C91848D90E001968F739927848FA7
:1001A000A689B7892C93A089B1898C9180648C939E
:1001B000938D848D981306C00288F389E02D808189
:1001C0008F7D80830895EF92FF920F931F93CF93BB
:1001D000DF93EC0181E0888F9B8D8C8D981305C097
:1001E000E889F989808185FD24C0F62E0B8D10E009
:1001F0000F5F1F4F0F731127E02E8C8DE8120CC07C
:100200000FB607FCFACFE889F989808185FFF5CF21
:10021000CE010E94C200F1CF8B8DFE01E80FF11DCF
:10022000E35AFF4FF0820B8FEA89FB89808180625D
:1002300007C0EE89FF896083E889F989808180643D
:10024000808381E090E0DF91CF911F910F91FF902B
:10025000EF900895CF93DF93EC01888D8823C9F048
:10026000EA89FB89808185FD05C0A889B9898C91BF
:1002700086FD0FC00FB607FCF5CF808185FFF2CF5A
:10028000A889B9898C9185FFEDCFCE010E94C2006B
:10029000E7CFDF91CF91089580E090E0892B29F09E
:1002A0000E94B80081110C9400000895009769F035
:1002B000FC0101900020E9F73197AF01481B590B71
:1002C000BC018BEB92E00C945F0080E090E008951D
:1002D00080E191E00C945601CF93DF930E94560188
:1002E000EC010E9468018C0F9D1FDF91CF91089552
:1002F0000E94DD031F920F920FB60F9211242F93CD
:100300003F938F939F93AF93BF938091B702909148
:10031000B802A091B902B091BA023091B60223E0BE
:10032000230F2D3720F40196A11DB11D05C026E82D
:10033000230F0296A11DB11D2093B6028093B70230
:100340009093B802A093B902B093BA028091B2021E
:100350009091B302A091B402B091B5020196A11D93
:10036000B11D8093B2029093B302A093B402B093F4
:10037000B502BF91AF919F918F913F912F910F90B7
:100380000FBE0F901F9018951F920F920FB60F92ED
:1003900011242F933F934F935F936F937F938F938A
:1003A0009F93AF93BF93EF93FF938BEB92E00E94E9
:1003B000C200FF91EF91BF91AF919F918F917F917B
:1003C0006F915F914F913F912F910F900FBE0F90C2
:1003D0001F9018951F920F920FB60F9211242F9312
:1003E0008F939F93EF93FF93E091CB02F091CC0218
:1003F0008081E091D102F091D20282FD12C0908101
:100400008091D4028F5F8F732091D502821751F0B3
:10041000E091D402F0E0E554FD4F958F8093D40233
:1004200001C08081FF91EF919F918F912F910F904B
:100430000FBE0F901F901895CF93DF93CDB7DEB707
:10044000A1970FB6F894DEBF0FBECDBF789484B5E8
:10045000826084BD84B5816084BD85B5826085BDC0
:1004600085B5816085BD80916E00816080936E004E
:100470001092810080918100826080938100809140
:1004800081008160809381008091800081608093F1
:1004900080008091B10084608093B1008091B000B1
:1004A00081608093B00080917A00846080937A00AC
:1004B00080917A00826080937A0080917A008160D6
:1004C00080937A0080917A00806880937A001092FD
:1004D000C100E091CB02F091CC0282E08083E091F8
:1004E000C702F091C8021082E091C902F091CA02DD
:1004F0008FEC80831092D302E091CF02F091D00272
:1005000086E08083E091CD02F091CE02808180610F
:100510008083E091CD02F091CE028081886080835B
:10052000E091CD02F091CE02808180688083E091DD
:10053000CD02F091CE0280818F7D808383E191E0B6
:100540000E946C010E9468018AE0882E912CA12CE7
:10055000B12C8BEB92E00E94AC00181619060CF03F
:10056000D4C08BEB92E00E948A008C018DE491E074
:100570000E945601602F8BEB92E00E94E3008CE515
:1005800091E00E9456016801012E000CEE08FF0860
:10059000F7FE26C0E091BB02F091BC020190F08111
:1005A000E02D6DE28BEB92E0099522273327A9011C
:1005B0002C193D094E095F0919A2CE0181967C01D3
:1005C000CA01B901A50194010E94B503605DF7015C
:1005D00062937F01211531054105510589F715C049
:1005E000A701960119A2CE0181967C01CA01B90129
:1005F000A50194010E94B503605DF70162937F013C
:10060000211531054105510589F7C7010E945601A1
:100610000E946801C8010E94E203892B21F08DE647
:1006200091E00E946C01C8010E94F203892B21F025
:100630008FE791E00E946C01C8018078892B21F43A
:100640008FE891E00E946C01C8010E942004892B70
:1006500021F08AE991E00E946C01C8010E94060421
:10066000892B21F08AEA91E00E946C01C801C097B1
:100670000A9720F483EC91E00E946C01C8010E946B
:100680000E04892B21F088ED91E00E946C01C801D5
:100690000E94F303892B21F089E092E00E946C0113
:1006A000C8010E941004892B21F089E192E00E9488
:1006B0006C01C8010E942804892B21F088E292E095
:1006C0000E946C01C8010E941704892B21F089E364
:1006D00092E00E946C01C8010E94EF03892B21F077
:1006E00080E592E00E946C01C8010E94FA03892B08
:1006F00021F080E692E00E946C010E9468018CE982
:1007000092E00E946C010E9468010E944C0121CF7E
:10071000EBEBF2E01382128288EE93E0A0E0B0E00F
:1007200084839583A683B78384E091E0918380835B
:1007300085EC90E09587848784EC90E097878687A6
:1007400080EC90E0918B808B81EC90E0938B828B9E
:1007500082EC90E0958B848B86EC90E0978B868B77
:10076000118E128E138E148E0895A1E21A2EAA1BDA
:10077000BB1BFD010DC0AA1FBB1FEE1FFF1FA21751
:10078000B307E407F50720F0A21BB30BE40BF50B4E
:10079000661F771F881F991F1A9469F760957095D7
:1007A000809590959B01AC01BD01CF010895EE0F9E
:1007B000FF1F0590F491E02D099481E090E0F894FA
:1007C0000C94350491110C94EC0380538A5018F06A
:1007D000865C0C94F203089599278827089585FD77
:1007E0000C94EC03806291110C94EC0381568A51B5
:1007F000D8F7089591110C94EC0380538A5028F097
:10080000865C806281568650B0F7089591110C94F1
:10081000EC038F3711F08052D0F70895803209F041
:1008200091110C94EC0380528F55D8F708959111D3
:100830000C94EC03803219F089508550C8F7089564
:1008400091110C94EC03803211F08930D1F70895A6
:1008500091110C94EC0381528E55D8F781580E9467
:0E086000E2038823B1F781E00895F894FFCFFA
:10086E0000000000E3005F00AC008A009E002A0139
:10087E000D0A0073656E6420616E7920627974656D
:10088E0020616E642049276C6C2074656C6C207935
:10089E006F752065766572797468696E6720492078
:1008AE0063616E2061626F757420697400596F7593
:1008BE002073656E74206D653A2027002720204135
:1008CE00534349492056616C75653A200069742777
:1008DE007320616C7068616E756D65726963006915
:1008EE0074277320616C7068616265746963006956
:1008FE007427732041534349490069742773207745
:10090E00686974657370616365006974277320612B
:10091E0020636F6E74726F6C2063686172616374B2
:10092E00657200697427732061206E756D6572693A
:10093E00632064696769740069742773206120708D
:10094E0072696E7461626C65206368617261637452
:10095E00657220746861742773206E6F74207768D7
:10096E0069746573706163650069742773206C6FB9
:10097E0077657220636173650069742773207072E6
:10098E00696E7461626C6500697427732070756E90
:10099E006374756174696F6E0069742773206120CA
:1009AE007370616365206368617261637465720060
:1009BE0069742773207570706572206361736500AA
:1009CE006974277320612076616C6964206865788C
:1009DE0061646563696D616C646967697420286917
:1009EE002E652E2030202D20392C2061202D2046E2
:1009FE002C206F722041202D2046290047697665F4
:100A0E00206D6520616E6F74686572206279746501
:020A1E003A009C
:107E0000112484B714BE81FFF0D085E080938100F7
:107E100082E08093C00088E18093C10086E0809377
:107E2000C20080E18093C4008EE0C9D0259A86E02C
:107E300020E33CEF91E0309385002093840096BBD3
:107E4000B09BFECF1D9AA8958150A9F7CC24DD24C4
:107E500088248394B5E0AB2EA1E19A2EF3E0BF2EE7
:107E6000A2D0813461F49FD0082FAFD0023811F036
:107E7000013811F484E001C083E08DD089C08234E0
:107E800011F484E103C0853419F485E0A6D080C0E4
:107E9000853579F488D0E82EFF2485D0082F10E0AE
:107EA000102F00270E291F29000F111F8ED06801E7
:107EB0006FC0863521F484E090D080E0DECF843638
:107EC00009F040C070D06FD0082F6DD080E0C81688
:107ED00080E7D80618F4F601B7BEE895C0E0D1E017
:107EE00062D089930C17E1F7F0E0CF16F0E7DF06D8
:107EF00018F0F601B7BEE89568D007B600FCFDCFD4
:107F0000A601A0E0B1E02C9130E011968C91119780
:107F100090E0982F8827822B932B1296FA010C0160
:107F200087BEE89511244E5F5F4FF1E0A038BF0790
:107F300051F7F601A7BEE89507B600FCFDCF97BE46
:107F4000E89526C08437B1F42ED02DD0F82E2BD052
:107F50003CD0F601EF2C8F010F5F1F4F84911BD097
:107F6000EA94F801C1F70894C11CD11CFA94CF0C13
:107F7000D11C0EC0853739F428D08EE10CD085E9AC
:107F80000AD08FE07ACF813511F488E018D01DD067
:107F900080E101D065CF982F8091C00085FFFCCF94
:107FA0009093C60008958091C00087FFFCCF809118
:107FB000C00084FD01C0A8958091C6000895E0E648
:107FC000F0E098E1908380830895EDDF803219F02E
:107FD00088E0F5DFFFCF84E1DECF1F93182FE3DFCA
:107FE0001150E9F7F2DF1F91089580E0E8DFEE27F6
:047FF000FF270994CA
:027FFE00040479
:0400000300007E007B
:00000001FF
