:100000000C9461000C9473000C9473000C947300B6
:100010000C9473000C9473000C9473000C94730094
:100020000C9473000C9473000C9473000C94730084
:100030000C9473000C9473000C9473000C94730074
:100040000C940A010C9473000C9473000C947300CC
:100050000C9473000C9473000C9473000C94730054
:100060000C9473000C94730000000000240027001F
:100070002A0000000000250028002B0000000000DE
:1000800023002600290004040404040404040202DA
:100090000202020203030303030301020408102007
:1000A0004080010204081020010204081020000012
:1000B0000008000201000003040700000000000027
:1000C000000011241FBECFEFD8E0DEBFCDBF21E07E
:1000D000A0E0B1E001C01D92AD30B207E1F70E948F
:1000E00054010C9461020C940000833081F028F4D8
:1000F000813099F08230A1F008958730A9F08830DE
:10010000B9F08430D1F4809180008F7D03C080915C
:1001100080008F7780938000089584B58F7702C028
:1001200084B58F7D84BD08958091B0008F7703C022
:100130008091B0008F7D8093B00008951F93CF937E
:10014000DF93282F30E0F901E255FF4F8491F90148
:10015000E656FF4FD491F901EA57FF4FC491CC23E3
:10016000C9F0162F81110E947500EC2FF0E0EE0F00
:10017000FF1FEE58FF4FA591B4918FB7F89411115E
:1001800005C09C91ED2FE095E92302C0EC91ED2B89
:10019000EC938FBFDF91CF911F910895CF93DF93A1
:1001A00090E0FC01E656FF4F2491FC01EA57FF4F17
:1001B0008491882361F190E0880F991FFC01E85930
:1001C000FF4FC591D491FC01EE58FF4FA591B4911A
:1001D000611109C09FB7F894888120958223888394
:1001E000EC912E230BC0623061F49FB7F8943881F4
:1001F000822F809583238883EC912E2B2C939FBF95
:1002000006C08FB7F894E8812E2B28838FBFDF912B
:10021000CF9108951F920F920FB60F9211242F9332
:100220003F938F939F93AF93BF93809109019091D8
:100230000A01A0910B01B0910C013091080123E05B
:10024000230F2D3720F40196A11DB11D05C026E80E
:10025000230F0296A11DB11D20930801809309016F
:1002600090930A01A0930B01B0930C0180910401BB
:1002700090910501A0910601B09107010196A11D81
:10028000B11D8093040190930501A0930601B093E2
:100290000701BF91AF919F918F913F912F910F9047
:1002A0000FBE0F901F901895789484B5826084BD1E
:1002B00084B5816084BD85B5826085BD85B581606A
:1002C00085BD80916E00816080936E0010928100E8
:1002D00080918100826080938100809181008160A3
:1002E0008093810080918000816080938000809164
:1002F000B10084608093B1008091B00081608093F0
:10030000B00080917A00846080937A0080917A00B6
:10031000826080937A0080917A00816080937A0075
:1003200080917A00806880937A001092C10060E02A
:1003300082E00E94CE0061E083E00E94CE0061E096
:1003400084E00E94CE0061E085E00E94CE0061E082
:1003500086E00E94CE0061E087E00E94CE0061E06E
:1003600088E00E94CE0061E089E00E94CE00C0EBF0
:10037000D0E00CE910E038E8E32E30E0F32E40E066
:10038000C42E40E0D42EFE018491F801A490F70120
:10039000B490BB20A9F081110E9475008B2D90E0D4
:1003A000880F991F84589F4FFC01A591B4918C919F
:1003B000A82231E020E009F430E0832F922F02C020
:1003C00080E090E0209102013091030182179307B1
:1003D00009F470C08130910551F4209100013091F1
:1003E00001012F5F3F4F3093010120930001909353
:1003F00003018093020180910001909101018230FC
:10040000910509F183309105C9F1019709F052C0B6
:1004100061E084E00E949E0061E085E00E949E0011
:1004200060E083E00E949E0060E086E00E949E0003
:1004300060E087E00E949E0060E088E00E949E00ED
:1004400060E089E035C061E083E00E949E0061E0E9
:1004500084E00E949E0061E089E00E949E0061E0CD
:1004600087E00E949E0061E086E00E949E0060E0BE
:1004700088E00E949E0060E085E01AC061E083E0B1
:100480000E949E0061E084E00E949E0061E089E09D
:100490000E949E0061E085E00E949E0061E086E08F
:1004A0000E949E0060E088E00E949E0060E087E07D
:1004B0000E949E00C114D10409F465CF0E9400007F
:0604C00062CFF894FFCFAB
:00000001FF
